{"abi":[{"type":"constructor","inputs":[{"name":"_taskIssuerAddress","type":"address","internalType":"address"},{"name":"_machineHash","type":"bytes32","internalType":"bytes32"}],"stateMutability":"nonpayable"},{"type":"function","name":"challengeHistory","inputs":[{"name":"","type":"uint256","internalType":"uint256"}],"outputs":[{"name":"","type":"bytes32","internalType":"bytes32"}],"stateMutability":"view"},{"type":"function","name":"challenges","inputs":[{"name":"","type":"bytes32","internalType":"bytes32"}],"outputs":[{"name":"start","type":"uint256","internalType":"uint256"},{"name":"end","type":"uint256","internalType":"uint256"},{"name":"creator","type":"address","internalType":"address"},{"name":"totalPrize","type":"uint256","internalType":"uint256"},{"name":"nPrizes","type":"uint256","internalType":"uint256"},{"name":"finalized","type":"bool","internalType":"bool"}],"stateMutability":"view"},{"type":"function","name":"computationSent","inputs":[{"name":"","type":"bytes32","internalType":"bytes32"}],"outputs":[{"name":"","type":"bool","internalType":"bool"}],"stateMutability":"view"},{"type":"function","name":"coprocessorCallbackOutputsOnly","inputs":[{"name":"_machineHash","type":"bytes32","internalType":"bytes32"},{"name":"_payloadHash","type":"bytes32","internalType":"bytes32"},{"name":"outputs","type":"bytes[]","internalType":"bytes[]"}],"outputs":[],"stateMutability":"nonpayable"},{"type":"function","name":"createChallenge","inputs":[{"name":"challengeId","type":"bytes32","internalType":"bytes32"},{"name":"creator","type":"address","internalType":"address"},{"name":"end","type":"uint256","internalType":"uint256"},{"name":"prizes","type":"uint256[]","internalType":"uint256[]"}],"outputs":[],"stateMutability":"payable"},{"type":"function","name":"doCoprocessorCall","inputs":[{"name":"input","type":"bytes","internalType":"bytes"}],"outputs":[],"stateMutability":"nonpayable"},{"type":"function","name":"evmInput","inputs":[{"name":"caller","type":"address","internalType":"address"},{"name":"payload","type":"bytes","internalType":"bytes"}],"outputs":[],"stateMutability":"nonpayable"},{"type":"function","name":"finalizeChallenge","inputs":[{"name":"challengeId","type":"bytes32","internalType":"bytes32"}],"outputs":[],"stateMutability":"nonpayable"},{"type":"function","name":"getPrizes","inputs":[{"name":"challengeId","type":"bytes32","internalType":"bytes32"}],"outputs":[{"name":"","type":"tuple[]","internalType":"struct TikalContest.Result[]","components":[{"name":"prize","type":"uint256","internalType":"uint256"},{"name":"timestamp","type":"uint256","internalType":"uint256"},{"name":"score","type":"uint256","internalType":"uint256"},{"name":"moves","type":"uint256","internalType":"uint256"},{"name":"movesLeft","type":"uint256","internalType":"uint256"},{"name":"user","type":"address","internalType":"address"},{"name":"escaped","type":"bool","internalType":"bool"}]}],"stateMutability":"view"},{"type":"function","name":"machineHash","inputs":[],"outputs":[{"name":"","type":"bytes32","internalType":"bytes32"}],"stateMutability":"view"},{"type":"function","name":"nChallenges","inputs":[],"outputs":[{"name":"","type":"uint256","internalType":"uint256"}],"stateMutability":"view"},{"type":"function","name":"runExecution","inputs":[{"name":"payload","type":"bytes","internalType":"bytes"}],"outputs":[],"stateMutability":"nonpayable"},{"type":"function","name":"taskIssuer","inputs":[],"outputs":[{"name":"","type":"address","internalType":"contract ITaskIssuer"}],"stateMutability":"view"},{"type":"event","name":"ChallengeNotice","inputs":[{"name":"challendge_id","type":"bytes32","indexed":true,"internalType":"bytes32"},{"name":"user","type":"address","indexed":true,"internalType":"address"},{"name":"treasures","type":"uint256","indexed":true,"internalType":"uint256"},{"name":"timestamp","type":"uint256","indexed":false,"internalType":"uint256"},{"name":"score","type":"uint256","indexed":false,"internalType":"uint256"},{"name":"escaped","type":"bool","indexed":false,"internalType":"bool"},{"name":"moves","type":"uint256","indexed":false,"internalType":"uint256"},{"name":"movesLeft","type":"uint256","indexed":false,"internalType":"uint256"},{"name":"payloadHash","type":"bytes32","indexed":false,"internalType":"bytes32"}],"anonymous":false},{"type":"event","name":"ReceivedNotice","inputs":[{"name":"challendge_id","type":"bytes32","indexed":true,"internalType":"bytes32"},{"name":"user","type":"address","indexed":true,"internalType":"address"},{"name":"timestamp","type":"uint256","indexed":false,"internalType":"uint256"},{"name":"payloadHash","type":"bytes32","indexed":false,"internalType":"bytes32"}],"anonymous":false},{"type":"error","name":"ChallengeFinalized","inputs":[]},{"type":"error","name":"ComputationNotFound","inputs":[{"name":"payloadHash","type":"bytes32","internalType":"bytes32"}]},{"type":"error","name":"InsufficientFunds","inputs":[{"name":"value","type":"uint256","internalType":"uint256"},{"name":"balance","type":"uint256","internalType":"uint256"}]},{"type":"error","name":"InvalidOutputLength","inputs":[{"name":"length","type":"uint256","internalType":"uint256"}]},{"type":"error","name":"InvalidOutputSelector","inputs":[{"name":"selector","type":"bytes4","internalType":"bytes4"},{"name":"expected","type":"bytes4","internalType":"bytes4"}]},{"type":"error","name":"InvalidParam","inputs":[{"name":"reason","type":"string","internalType":"string"}]},{"type":"error","name":"InvalidPrize","inputs":[{"name":"reason","type":"string","internalType":"string"}]},{"type":"error","name":"MachineHashMismatch","inputs":[{"name":"current","type":"bytes32","internalType":"bytes32"},{"name":"expected","type":"bytes32","internalType":"bytes32"}]},{"type":"error","name":"UnauthorizedCaller","inputs":[{"name":"caller","type":"address","internalType":"address"}]}],"bytecode":{"object":"0x608034607757601f61152e38819003918201601f19168301916001600160401b03831184841017607b57808492604094855283398101031260775780516001600160a01b038116919082900360775760200151600180546001600160a01b0319169092179091555f5560405161149e90816100908239f35b5f80fd5b634e487b7160e01b5f52604160045260245ffdfe60806040526004361015610011575f80fd5b5f3560e01c806325daa706146100e457806335c7167b146100df57806339bdee65146100da5780634af97440146100d557806358f6e29f146100d057806368b3823e146100cb57806387cee093146100c65780639e955f5f146100c1578063c1e69b66146100bc578063c560f017146100b7578063cd0a0f48146100b2578063dca588c1146100ad5763e8ffe19f146100a8575f80fd5b610b40565b610b11565b610a83565b6108bf565b6107cf565b6107b2565b610788565b6104cc565b610307565b6102af565b61024a565b610151565b6100f7565b5f9103126100f357565b5f80fd5b346100f3575f3660031901126100f35760205f54604051908152f35b6001600160a01b038116036100f357565b9181601f840112156100f3578235916001600160401b0383116100f357602083818601950101116100f357565b346100f35760403660031901126100f35760043561016e81610113565b6024356001600160401b0381116100f3576101bb916101946101c9923690600401610124565b60405163415bf36360e01b6020820152948593909290449042904390304660248a01610dac565b03601f198101835282610e31565b303b156100f3575f6101ef91604051809381926319a141e960e31b835260048301610e76565b038183305af180156102175761020157005b8061020f5f61021593610e31565b806100e9565b005b610e87565b60206003198201126100f357600435906001600160401b0382116100f35761024691600401610124565b9091565b346100f3576102583661021c565b90303b156100f3575f61028f91604051809381926335c7167b60e01b83528496336004850152604060248501526044840191610d8c565b038183305af18015610217576102a3575080f35b61021591505f90610e31565b346100f3575f3660031901126100f3576001546040516001600160a01b039091168152602090f35b9181601f840112156100f3578235916001600160401b0383116100f3576020808501948460051b0101116100f357565b346100f35760603660031901126100f3576024356004356044356001600160401b0381116100f35761033d9036906004016102d7565b6001549192909161036490610358906001600160a01b031681565b6001600160a01b031690565b33036104b9575f54908181036104a457505061039961039561038e855f52600260205260405f2090565b5460ff1690565b1590565b610490575f5b8181106103c5576102156103bb855f52600260205260405f2090565b805460ff19169055565b6103d0818385610ea6565b600381939293111561047e5780806103f46103ee6103fa9487610eec565b90610f17565b94610efa565b926001600160e01b0319811663c258d6e560e01b81036104345750506104288160019461042e930190610fb9565b866111db565b0161039f565b92939263237a816f60e01b0361045757506001929161045291611113565b61042e565b63bd210a1960e01b5f526001600160e01b03191660045263c258d6e560e01b60245260445ffd5b633dbd2b1360e11b5f5260045260245ffd5b637268e7ab60e11b5f52600483905260245ffd5b63ce2509df60e01b5f5260045260245260445ffd5b63d86ad9cf60e01b5f523360045260245ffd5b346100f35760203660031901126100f3576004356104ff60066104f7835f52600360205260405f2090565b015460ff1690565b610779576001610517825f52600360205260405f2090565b015415610745576001610532825f52600360205260405f2090565b0154421115610713576105606006610552835f52600360205260405f2090565b01805460ff19166001179055565b6003610574825f52600360205260405f2090565b0154905f5b600461058d835f52600360205260405f2090565b015460ff821610156106e5576105d761035860056105c984826105b8885f52600360205260405f2090565b019060ff165f5260205260405f2090565b01546001600160a01b031690565b6105ea575b6105e590610ff2565b610579565b91806106048460056105b8865f52600360205260405f2090565b54116106a95761062d906106268460056105b8865f52600360205260405f2090565b5490611008565b915f80808061064e60056105c987826105b88b5f52600360205260405f2090565b6106668660056105b88a5f52600360205260405f2090565b54905af1610672611015565b506105dc575b60405163a15898f760e01b81526020600482015260086024820152670cae4e4dee440e8f60c31b6044820152606490fd5b60405163a15898f760e01b81526020600482015260136024820152721a5b9cdd59999a58da595b9d08185b5bdd5b9d606a1b6044820152606490fd5b5f8080808661070160026105c9895f52600360205260405f2090565b5af161070b611015565b501561067857005b604051634389d5ab60e01b81526020600482015260096024820152681b9bdd08195b99195960ba1b6044820152606490fd5b604051634389d5ab60e01b815260206004820152600b60248201526a1b9bdd0818dc99585d195960aa1b6044820152606490fd5b6329fbec6b60e21b5f5260045ffd5b346100f35760203660031901126100f3576004355f526004602052602060405f2054604051908152f35b346100f3575f3660031901126100f3576020600554604051908152f35b346100f35760203660031901126100f3576004355f52600360205260c060405f2080549060018101549060018060a01b0360028201541660038201549060ff6006600485015494015416936040519586526020860152604085015260608401526080830152151560a0820152f35b60206040818301928281528451809452019201905f5b8181106108605750505090565b909192602060e060019260c08751805183528481015185840152604081015160408401526060810151606084015260808101516080840152858060a01b0360a08201511660a08401520151151560c08201520194019101919091610853565b346100f35760203660031901126100f3576004356108f160046108ea835f52600360205260405f2090565b015461105b565b905f5b6004610908835f52600360205260405f2090565b015460ff821690811015610a715790610a67610a6c926109368360056105b8885f52600360205260405f2090565b5461094182886110d4565b5152600161095d8460056105b8895f52600360205260405f2090565b0154602061096b83896110d4565b51015260026109888460056105b8895f52600360205260405f2090565b0154604061099683896110d4565b51015260036109b38460056105b8895f52600360205260405f2090565b015460606109c183896110d4565b51015260046109de8460056105b8895f52600360205260405f2090565b015460806109ec83896110d4565b510152610a2b610a0e60056105c986826105b88b5f52600360205260405f2090565b60a0610a1a848a6110d4565b516001600160a01b03909216910152565b60c0610a5e610a576005610a4c87826105b88c5f52600360205260405f2090565b015460a01c60ff1690565b92886110d4565b51019015159052565b610ff2565b6108f4565b60405180610a7f868261083d565b0390f35b346100f357610a9b610a943661021c565b3691610f68565b805160208201205f526002602052610abd60405f20600160ff19825416179055565b600154610ad2906001600160a01b0316610358565b905f54823b156100f357610b01925f9283604051809681958294631590106b60e11b84523091600485016113f2565b03925af180156102175761020157005b346100f35760203660031901126100f3576004355f526002602052602060ff60405f2054166040519015158152f35b60803660031901126100f357600435602435610b5b81610113565b604435906064356001600160401b0381116100f357610b7e9036906004016102d7565b906001610b93865f52600360205260405f2090565b0154610d5a5742841115610d2e576101008211610cf9575f5f5b60ff81169184831015610c035790610bdf610bd7610bfe93610bd08689896110e8565b35906110f8565b9386866110e8565b35610bf88260056105b88c5f52600360205260405f2090565b55610ff2565b610bad565b8488918888348303610cc557610c719142610c26875f52600360205260405f2090565b556001610c3b875f52600360205260405f2090565b01556002610c51865f52600360205260405f2090565b0180546001600160a01b0319166001600160a01b03909216919091179055565b6003610c85845f52600360205260405f2090565b01556004610c9b835f52600360205260405f2090565b0155610cb16005545f52600460205260405f2090565b55610215610cc0600554611105565b600555565b604051634389d5ab60e01b815260206004820152600b60248201526a746f74616c207072697a6560a81b6044820152606490fd5b604051634389d5ab60e01b815260206004820152600c60248201526b0e0e4d2f4ca40d8cadccee8d60a31b6044820152606490fd5b604051634389d5ab60e01b8152602060048201526003602482015262195b9960ea1b6044820152606490fd5b604051634389d5ab60e01b81526020600482015260096024820152686475706c696361746560b81b6044820152606490fd5b908060209392818452848401375f828201840152601f01601f1916010190565b9081526001600160a01b039182166020820152911660408201526060810191909152608081019190915260a08101919091525f60c082015261010060e08201819052610dfa93910191610d8c565b90565b634e487b7160e01b5f52604160045260245ffd5b60e081019081106001600160401b03821117610e2c57604052565b610dfd565b90601f801991011681019081106001600160401b03821117610e2c57604052565b805180835260209291819084018484015e5f828201840152601f01601f1916010190565b906020610dfa928181520190610e52565b6040513d5f823e3d90fd5b634e487b7160e01b5f52603260045260245ffd5b9190811015610ee75760051b81013590601e19813603018212156100f35701908135916001600160401b0383116100f35760200182360381136100f3579190565b610e92565b906004116100f35790600490565b90929192836004116100f35783116100f357600401916003190190565b356001600160e01b0319811692919060048210610f32575050565b6001600160e01b031960049290920360031b82901b16169150565b6001600160401b038111610e2c57601f01601f191660200190565b929192610f7482610f4d565b91610f826040519384610e31565b8294818452818301116100f3578281602093845f960137010152565b9080601f830112156100f357816020610dfa93359101610f68565b906020828203126100f35781356001600160401b0381116100f357610dfa9201610f9e565b634e487b7160e01b5f52601160045260245ffd5b60ff1660ff81146110035760010190565b610fde565b9190820391821161100357565b3d1561103f573d9061102682610f4d565b916110346040519384610e31565b82523d5f602084013e565b606090565b6001600160401b038111610e2c5760051b60200190565b9061106582611044565b6110726040519182610e31565b8281528092611083601f1991611044565b01905f5b82811061109357505050565b6020906040516110a281610e11565b5f81525f838201525f60408201525f60608201525f60808201525f60a08201525f60c082015282828501015201611087565b8051821015610ee75760209160051b010190565b9190811015610ee75760051b0190565b9190820180921161100357565b5f1981146110035760010190565b9081016060828203126100f357813561112b81610113565b6020830135926040810135906001600160401b0382116100f3576111649385926111559201610f9e565b916001600160a01b0316611420565b91901561116f575050565b62fae2d560e21b5f5260045260245260445ffd5b9190826101009103126100f35781519160208101519160408201519160608101519160808201519160a08101516111b981610113565b9160c082015160ff811681036100f35760e09092015180151581036100f35790565b906111ef9060208082518301019101611183565b60408051888152602081018b905297996001600160a01b03949094169897959691959294919392899189917f808b9d5fa69dda028b51e6880fa94db115ed101367c0a6169d07d49c0acd26229190a3611250875f52600360205260405f2090565b54891015806113d3575b61126a575b505050505050505050565b7f85f166ab5ff0e4016741e39dab59f71d975764dc7fe5b4429dee781c95496e4295856112f3948b60ff988c8c8a60026112b28260056105b8865f52600360205260405f2090565b01548611611304575b5050505050604051978897169b879260a094919796959260c08501988552602085015215156040840152606083015260808201520152565b0390a45f808080808080808061125f565b60056105b88361139d83966113c999600161132f88886105b86113ab9c5f52600360205260405f2090565b01558a600261134b88886105b8885f52600360205260405f2090565b01558c600361136788886105b8885f52600360205260405f2090565b01558d600461138388886105b8885f52600360205260405f2090565b015584610c5187826105b8875f52600360205260405f2090565b5f52600360205260405f2090565b01805460ff60a01b191691151560a01b60ff60a01b16919091179055565b8b828c8c8a6112bb565b5060016113e8885f52600360205260405f2090565b015489111561125a565b91611410906040929594958452606060208501526060840190610e52565b6001600160a01b03909416910152565b909291924793848211611460575f928392602083519301915af1611442611015565b901561144f575060019190565b8051908161145b575f80fd5b602001fd5b5050505f919056fea26469706673582212209b26988d28155e16035ca4490b5b073ca45111271c3ebc133e044b1007ddb48364736f6c634300081c0033","linkReferences":{}},"methodIdentifiers":{"challengeHistory(uint256)":"87cee093","challenges(bytes32)":"c1e69b66","computationSent(bytes32)":"dca588c1","coprocessorCallbackOutputsOnly(bytes32,bytes32,bytes[])":"58f6e29f","createChallenge(bytes32,address,uint256,uint256[])":"e8ffe19f","doCoprocessorCall(bytes)":"cd0a0f48","evmInput(address,bytes)":"35c7167b","finalizeChallenge(bytes32)":"68b3823e","getPrizes(bytes32)":"c560f017","machineHash()":"25daa706","nChallenges()":"9e955f5f","runExecution(bytes)":"39bdee65","taskIssuer()":"4af97440"},"id":24}